[
    [
        {
            "comment": "Regular p2pkh tx",
            "version": 1,
            "vin": [
                {
                    "outpoint": {
                        "txid": "f8f968d80ac382a7b64591cc166489f66b7c4422f95fbd89f946a5041d285d7c",
                        "n": 1
                    },
                    "scriptSig": "483045022100a4eac56caaf3700c4f53822fbb858256f3a5c154d268f416ade685de3fe61de202206fb38cfe8fd4faf8b14dc7ac0799c4acfd50a81c4d93509ebd6fb0bca3bb8a7a0121035b57e0afed95b86ad3ccafb9a8c752dc173cea16274cf9dd9b7a43364d36cf38"
                }
            ],
            "vout": [
                {
                    "script": "76a914f49b25384b79685227be5418f779b98a6be4c73888ac",
                    "value": 4992400
                },
                {
                    "script": "76a914a95cc6408a676232d61ec29dc56a180b5847835788ac",
                    "value": 5000000
                }
            ],
            "lockTime": 0,
            "shieldData": ""
        },
        "9cf01cffc85d53b80a9c7ca106fc7326efa0f4f1db3eaf5be0ac45eb6105b8ab",
        "01000000017c5d281d04a546f989bd5ff922447c6bf6896416cc9145b6a782c30ad868f9f8010000006b483045022100a4eac56caaf3700c4f53822fbb858256f3a5c154d268f416ade685de3fe61de202206fb38cfe8fd4faf8b14dc7ac0799c4acfd50a81c4d93509ebd6fb0bca3bb8a7a0121035b57e0afed95b86ad3ccafb9a8c752dc173cea16274cf9dd9b7a43364d36cf38ffffffff02902d4c00000000001976a914f49b25384b79685227be5418f779b98a6be4c73888ac404b4c00000000001976a914a95cc6408a676232d61ec29dc56a180b5847835788ac00000000",
        [
            [
                "YU12G8Y9LwC3wb2cwUXvvg1iMvBey1ibCF23WBAapCuaKhd6a4R6",
                "76a914f49b25384b79685227be5418f779b98a6be4c73888ac"
            ]
        ]
    ],
    [
        {
            "comment": "Tx with cold stake",
            "version": 1,
            "vin": [
                {
                    "outpoint": {
                        "txid": "bf6d18b280a5c68480e9cad557589729668be59bda48375906a04fd9fbf6ff13",
                        "n": 0
                    },
                    "scriptSig": "4830450221009de7f40ae52ae9da0fd103c40e3f914654fd699909c8ff9b083983701d807a0c02203d81de9ebca45f067317fcb5c31326cd9aa18734abe015ffd65cfef62f710dde012102ff1cfb54a2ec3de473e3171d0724356f3e80c6522319b521b5454ddd62403a3e"
                }
            ],
            "vout": [
                {
                    "script": "76a9143232b7bd616dd5ebeefcd216671fe9a7c2f96b2e88ac",
                    "value": 409978200
                },
                {
                    "script": "76a97b63d114f912041b9c6d2351a4022cb1e8ee0108ed7239796714c212b614b19765cd544e8c2186fa17d6b8aeb2f16888ac",
                    "value": 100000000
                }
            ],
            "lockTime": 0,
            "shieldData": ""
        },
        "351925a42176fe2b95f1e650532529d5441cb5b4b66ecf29d45b6184f8203dbe",
        "010000000113fff6fbd94fa006593748da9be58b6629975857d5cae98084c6a580b2186dbf000000006b4830450221009de7f40ae52ae9da0fd103c40e3f914654fd699909c8ff9b083983701d807a0c02203d81de9ebca45f067317fcb5c31326cd9aa18734abe015ffd65cfef62f710dde012102ff1cfb54a2ec3de473e3171d0724356f3e80c6522319b521b5454ddd62403a3effffffff0258c56f18000000001976a9143232b7bd616dd5ebeefcd216671fe9a7c2f96b2e88ac00e1f505000000003376a97b63d114f912041b9c6d2351a4022cb1e8ee0108ed7239796714c212b614b19765cd544e8c2186fa17d6b8aeb2f16888ac00000000",
        null
    ],
    [
        {
            "comment": "Coinstake tx",
            "version": 1,
            "vin": [
                {
                    "outpoint": {
                        "txid": "563c3a606121282be03b743a7e714ead79f3fc850032e197883a3b88608ec124",
                        "n": 1
                    },
                    "scriptSig": "4730440220773979ad4cac8eb810cc57c8099866f7c2512550b877559a8c2f61e99e1780630220057bb31305908a3d502238d9535b90446721513324df221c4d0805d8681005a001"
                }
            ],
            "vout": [
                {
                    "script": "",
                    "value": 0
                },
                {
                    "script": "2103112df8b7ece0ebdfaa17d13d7d9e4df3ff1261ba107d9f929c6eea633c71bd90ac",
                    "value": 72056900000
                },
                {
                    "value": 600000000,
                    "script": "76a9140363526ab523d61302f8c74305e5891ad8af922388ac"
                }
            ],
            "lockTime": 0,
            "shieldData": ""
        },
        "a9c4aea4a3b7962ce6d33190f738ee6cf266e5dd3b7061f25fd8f285ae1fabba",
        "010000000124c18e60883b3a8897e1320085fcf379ad4e717e3a743be02b282161603a3c5601000000484730440220773979ad4cac8eb810cc57c8099866f7c2512550b877559a8c2f61e99e1780630220057bb31305908a3d502238d9535b90446721513324df221c4d0805d8681005a001ffffffff03000000000000000000a009edc610000000232103112df8b7ece0ebdfaa17d13d7d9e4df3ff1261ba107d9f929c6eea633c71bd90ac0046c323000000001976a9140363526ab523d61302f8c74305e5891ad8af922388ac00000000",
        null
    ],
    [
        {
            "comment": "Coinbase tx",
            "version": 1,
            "vin": [
                {
                    "outpoint": {
                        "txid": "0000000000000000000000000000000000000000000000000000000000000000",
                        "n": 4294967295
                    },
                    "scriptSig": "035e9c3f00"
                }
            ],
            "vout": [
                {
                    "value": 0,
                    "script": ""
                }
            ]
        },
        "ae5f760b98070225757b1e21a2e84882ab9f71dff5a6aebde69f5d7ca20be6da",
        "01000000010000000000000000000000000000000000000000000000000000000000000000ffffffff05035e9c3f00ffffffff0100000000000000000000000000",
        null
    ],
    [
        {
            "comment": "Shield tx",
            "version": 3,
            "vin": [],
            "vout": [
                {
                    "value": 2500000000,
                    "script": "76a914ce59419cfde9363da04d999f153357459b7307e888ac"
                }
            ],
            "valueBalance": 2501835000,
            "shieldSpend": [
                {
                    "cv": "66ddd5487718dd4379ac502c49c6bfc15565fb07d0ac6c957f2895fc59fe1f78",
                    "anchor": "195a062c970597dc61613125f5206636ad745e72d6c1a8ddeb8731d464866902",
                    "nullifier": "dbb47806aab001478d8d801f4a9d83e9eba2a85ce21514280325d84297084b4d",
                    "rk": "df2cd185c8e9334a3e454715d2ac8e28fdfe0747ce63556dbf39059ef1e07859",
                    "proof": "b764610d5317249b978d3020332766a64176c18dc7ab89005ea03b1d438f20f00d4f37c0672418e4b74fb5042d574e04b5ab5df38e9d83274dba8d14dc8d6f36e3a2e890ac7aace1749af1eb263cd4a236c19cdd4d5e727963f2a111f165548513e11d9d99399f32aef9cea82f21e2e58d67357e8f4f55416bc8ce4fb4993fe7812d4565470adf1e8bf6bcf1606cf3d58ed0208f8f52d5d23aeaff5b2945f845828d0e29fa9e5cc60812377da9aaeb152eb92069a5916995e69b837a0b4f9f10",
                    "spendAuthSig": "bea5fa6e956d391e1fd9433485fe5e7e8f31b2c92e5e7d2060a8efd3706d89e90d247e96abed2b91f61100a6ae95fdfa4b88469c7096d54224aad7a98318c508"
                },
                {
                    "cv": "5be3959fd093e8bc428b825cf1e83c25076871231d562a1f3d8ba92ec1edb463",
                    "anchor": "195a062c970597dc61613125f5206636ad745e72d6c1a8ddeb8731d464866902",
                    "nullifier": "4e0017ddee9a1fa017d8f6aac109be67aa883a841c3d81e45295cdbb7187c84d",
                    "rk": "88f21b900d0b48a7ae03d659e8622a696547b2a0577bce92760fa10c5c8cd773",
                    "proof": "97388db4c3c750f697cc193e5f1b385f52c1ea2a5e1e9403771ae2c7cda0133f5abdd0f839d62866a73e6772ec66d2e0930c79b9c51de72d93f13130729e3d7edd5fe62e19a8854028aaa64bfdda6aae577a8abd5666d55a833614d0435249430f361d63d17c166a643ae98e3fb06bf8ae07591c93cd83145e3420dc0969b892ff2033328f4e23ce218e3e28f5230888b4ac6983f1fba77a2c5d89a0442a7e4f3bd377e59408f300257529abea93ac081493402ab89dd0a99945829f153db947",
                    "spendAuthSig": "6c9b7060be67d9cb2c22a4badee80c2915aedaefcefe04e04f5321947b97edd23a25831d11a4dc5ad1d61adcdc400e10d8075f4fbe703ec52f0beeec10b47604"
                }
            ],
            "shieldOutput": [
                {
                    "cv": "a81cc8b8e7ba64bdc89bf70c52588ded902becda55b5f966907639a6ebd62691",
                    "cmu": "183ab57b43b842c402274b4c43c7e31ccc6da5ace32e6c6654234c8dc47180d4",
                    "ephemeralKey": "6d9ace129605902baf878b2f38be29cc2178beb906c1c983636625c3ecc75771",
                    "encCiphertext": "5196da268d27ad5232426c0010f969327de3fb8104841e17a2ca71706ba74182fdfa90a81afeae1bd23b561dff1c8d7961dfd6ef97fa6dda95909abbdb95f66c946e266eaefa4efae64de30c8f39306ebf9c9642f4b93b5eb6240de67197ac278b482148f37deb15e63d2a9a8a87959a650808e10a6cca75758b006c9855750fdb841c3aae8eb0f314b9f9a6425668ba8386dcaf4ce4344262538e43c3dcd21c45e21c00f1757fcfae39dd9561688257fa7cc04af5514e6443bf015e1cd51d4f843ff14784067dc58501c87121db46713e00f2ffecb391ca830b7f1d8b8f79ed6bc735efada94a497366a46a2858114d3d19d2f40078e19a8aef6ab5b88573534e53e5674f983c8494ed4d213899a184e3cb103acc5605f05cd780b527458948e8ad61ef43d6da53377f709f4271e61a67526ff5ef31f9957789df95c1c50f73707042aad07326e04756cdceff5c98219e4348d0358970c32711fad2ada19280005b737050203793f2debec78e2ab86e87888950af17c745030ff7d9cf86a94f620c5bc201092cd3b03c9abe70ae45c9d811fd90482f3b2f7c9f218325dd2934545fbdabb3fc64cbda30843e7036ab8b56e96b26a1cdb6bae99a0c8f578f4de3794d73d1e262fb6cc48c0faf5e46c5729d8db2fce57be6159fe9dce874effccdee8b729c253a39ec4f34c5b1c734838f67949f162d2b1c2ac056e663926ba50e558b01bdd1936270410123b22be571b49fc774f4e349915ec7cec70b103ee8e9e497279d2d613d07384feadb371ad857a5eef0b74b6956c6e29ab4494c026593dbd2f2ef",
                    "outCiphertext": "8b4b04fbdd28a441dab042657f5a50a9214cf1ce801e12c750e77c884f1bdfa296f4aaa469f42bec681f187d00659381b7a2017c2e73bcd8ffd322278d0e3813a4aef2b4b2d04113223be1cfe008004a",
                    "proof": "a618705fad0d840ea6c830b9fb7bc049186750efb567b070f661798466a154009d3a074a23d6b0d91d416d62eb1011e1aeca68f6c39c6e123433f1d77f4216097cc1590c6e43acc969d7033647ae345549cc166ef24d0a93265bccd3edec752f0f91c374f48eb0f55b7abd3e86b9ac5cd2b6becbfb5f62154d7a2d60d47fbf58af2b9715335c7f193d57f50d7d4157b4b02fd2a063238e15e09a0b4562d006c2668be044eca96a2abf0d6fc009e6ceff7e245c0a27b550ff20c5e2f636c0e84d"
                }
            ],
            "bindingSig": "5762b2ed880d1e18c8ed6dd2a2d28915d0482481baa07f7d6a85fd100c50318ad64074c0db077954432cfa65246e2ac23573292db523ac526590fd3d1422d10a"
        },
        "40c869d15a0f12b378611ff06347d9de9d50df50b1a093efb00e54ec3c33461a",
        "03000000000100f90295000000001976a914ce59419cfde9363da04d999f153357459b7307e888ac0000000001f8f81e950000000002781ffe59fc95287f956cacd007fb6555c1bfc6492c50ac7943dd187748d5dd6602698664d43187ebdda8c1d6725e74ad366620f525316161dc9705972c065a194d4b089742d82503281415e25ca8a2ebe9839d4a1f808d8d4701b0aa0678b4db5978e0f19e0539bf6d5563ce4707fefd288eacd21547453e4a33e9c885d12cdfb764610d5317249b978d3020332766a64176c18dc7ab89005ea03b1d438f20f00d4f37c0672418e4b74fb5042d574e04b5ab5df38e9d83274dba8d14dc8d6f36e3a2e890ac7aace1749af1eb263cd4a236c19cdd4d5e727963f2a111f165548513e11d9d99399f32aef9cea82f21e2e58d67357e8f4f55416bc8ce4fb4993fe7812d4565470adf1e8bf6bcf1606cf3d58ed0208f8f52d5d23aeaff5b2945f845828d0e29fa9e5cc60812377da9aaeb152eb92069a5916995e69b837a0b4f9f10bea5fa6e956d391e1fd9433485fe5e7e8f31b2c92e5e7d2060a8efd3706d89e90d247e96abed2b91f61100a6ae95fdfa4b88469c7096d54224aad7a98318c50863b4edc12ea98b3d1f2a561d23716807253ce8f15c828b42bce893d09f95e35b02698664d43187ebdda8c1d6725e74ad366620f525316161dc9705972c065a194dc88771bbcd9552e4813d1c843a88aa67be09c1aaf6d817a01f9aeedd17004e73d78c5c0ca10f7692ce7b57a0b24765692a62e859d603aea7480b0d901bf28897388db4c3c750f697cc193e5f1b385f52c1ea2a5e1e9403771ae2c7cda0133f5abdd0f839d62866a73e6772ec66d2e0930c79b9c51de72d93f13130729e3d7edd5fe62e19a8854028aaa64bfdda6aae577a8abd5666d55a833614d0435249430f361d63d17c166a643ae98e3fb06bf8ae07591c93cd83145e3420dc0969b892ff2033328f4e23ce218e3e28f5230888b4ac6983f1fba77a2c5d89a0442a7e4f3bd377e59408f300257529abea93ac081493402ab89dd0a99945829f153db9476c9b7060be67d9cb2c22a4badee80c2915aedaefcefe04e04f5321947b97edd23a25831d11a4dc5ad1d61adcdc400e10d8075f4fbe703ec52f0beeec10b47604019126d6eba639769066f9b555daec2b90ed8d58520cf79bc8bd64bae7b8c81ca8d48071c48d4c2354666c2ee3aca56dcc1ce3c7434c4b2702c442b8437bb53a187157c7ecc325666383c9c106b9be7821cc29be382f8b87af2b90059612ce9a6d5196da268d27ad5232426c0010f969327de3fb8104841e17a2ca71706ba74182fdfa90a81afeae1bd23b561dff1c8d7961dfd6ef97fa6dda95909abbdb95f66c946e266eaefa4efae64de30c8f39306ebf9c9642f4b93b5eb6240de67197ac278b482148f37deb15e63d2a9a8a87959a650808e10a6cca75758b006c9855750fdb841c3aae8eb0f314b9f9a6425668ba8386dcaf4ce4344262538e43c3dcd21c45e21c00f1757fcfae39dd9561688257fa7cc04af5514e6443bf015e1cd51d4f843ff14784067dc58501c87121db46713e00f2ffecb391ca830b7f1d8b8f79ed6bc735efada94a497366a46a2858114d3d19d2f40078e19a8aef6ab5b88573534e53e5674f983c8494ed4d213899a184e3cb103acc5605f05cd780b527458948e8ad61ef43d6da53377f709f4271e61a67526ff5ef31f9957789df95c1c50f73707042aad07326e04756cdceff5c98219e4348d0358970c32711fad2ada19280005b737050203793f2debec78e2ab86e87888950af17c745030ff7d9cf86a94f620c5bc201092cd3b03c9abe70ae45c9d811fd90482f3b2f7c9f218325dd2934545fbdabb3fc64cbda30843e7036ab8b56e96b26a1cdb6bae99a0c8f578f4de3794d73d1e262fb6cc48c0faf5e46c5729d8db2fce57be6159fe9dce874effccdee8b729c253a39ec4f34c5b1c734838f67949f162d2b1c2ac056e663926ba50e558b01bdd1936270410123b22be571b49fc774f4e349915ec7cec70b103ee8e9e497279d2d613d07384feadb371ad857a5eef0b74b6956c6e29ab4494c026593dbd2f2ef8b4b04fbdd28a441dab042657f5a50a9214cf1ce801e12c750e77c884f1bdfa296f4aaa469f42bec681f187d00659381b7a2017c2e73bcd8ffd322278d0e3813a4aef2b4b2d04113223be1cfe008004aa618705fad0d840ea6c830b9fb7bc049186750efb567b070f661798466a154009d3a074a23d6b0d91d416d62eb1011e1aeca68f6c39c6e123433f1d77f4216097cc1590c6e43acc969d7033647ae345549cc166ef24d0a93265bccd3edec752f0f91c374f48eb0f55b7abd3e86b9ac5cd2b6becbfb5f62154d7a2d60d47fbf58af2b9715335c7f193d57f50d7d4157b4b02fd2a063238e15e09a0b4562d006c2668be044eca96a2abf0d6fc009e6ceff7e245c0a27b550ff20c5e2f636c0e84d5762b2ed880d1e18c8ed6dd2a2d28915d0482481baa07f7d6a85fd100c50318ad64074c0db077954432cfa65246e2ac23573292db523ac526590fd3d1422d10a"
    ],
    [
        {
            "comment": "Cold stake",
            "version": 1,
            "vin": [
                {
                    "outpoint": {
                        "txid": "6e4213309565ec730f752a639d0a552dad85399d6d64488b09957ab6bd8ae1f5",
                        "n": 1
                    },
                    "scriptSig": "483045022100c4037315756d0c0a8e9b4b9968a3a63b5607059a98bc687e1a84c774f08a317602207e8e57fea23d6c8edbd92212e6f5edf16f67cdbae0ab348d4d20a0ef3e8e45ac012102814b13a56bfb930565ff9002298d315e50a11e6902aff2a0c334d2c27b1aa89b"
                },
                {
                    "outpoint": {
                        "txid": "3d922c4320e27a6ba656aea0820e2297c8129ca4bfec1af37dca9cb2f50b21b9",
                        "n": 1
                    },
                    "scriptSig": "4830450221008954308d17283bfb6140b06b5d6563a5a615c071295c2b6ae0ddd379935207b7022005b362b220cbab72c3b77baa4a67c95a4e817ceee53a8986dc933de4eac0bd71012102814b13a56bfb930565ff9002298d315e50a11e6902aff2a0c334d2c27b1aa89b"
                }
            ],
            "vout": [
                {
                    "script": "76a9149139c74239af4ff8279b4675643e9db474bfefe488ac",
                    "value": 19985800
                },
                {
                    "script": "76a97b63d114f912041b9c6d2351a4022cb1e8ee0108ed72397967149139c74239af4ff8279b4675643e9db474bfefe46888ac",
                    "value": 100000000
                }
            ],
            "shieldData": "",
            "lockTime": 0
        },
        "00d268b6476e27669c11780963d6a5d28c42eb7032d1d5e0fd796a7b59d91c3e",
        "0100000002f5e18abdb67a95098b48646d9d3985ad2d550a9d632a750f73ec65953013426e010000006b483045022100c4037315756d0c0a8e9b4b9968a3a63b5607059a98bc687e1a84c774f08a317602207e8e57fea23d6c8edbd92212e6f5edf16f67cdbae0ab348d4d20a0ef3e8e45ac012102814b13a56bfb930565ff9002298d315e50a11e6902aff2a0c334d2c27b1aa89bffffffffb9210bf5b29cca7df31aecbfa49c12c897220e82a0ae56a66b7ae220432c923d010000006b4830450221008954308d17283bfb6140b06b5d6563a5a615c071295c2b6ae0ddd379935207b7022005b362b220cbab72c3b77baa4a67c95a4e817ceee53a8986dc933de4eac0bd71012102814b13a56bfb930565ff9002298d315e50a11e6902aff2a0c334d2c27b1aa89bffffffff0288f53001000000001976a9149139c74239af4ff8279b4675643e9db474bfefe488ac00e1f505000000003376a97b63d114f912041b9c6d2351a4022cb1e8ee0108ed72397967149139c74239af4ff8279b4675643e9db474bfefe46888ac00000000",
        [
            [
                "cUaEiLoRAuh4LRQhxFDfHMH6CmHqCPJqSsUuzLD2n5CpnCHKKSwX",
                "76a9149139c74239af4ff8279b4675643e9db474bfefe488ac"
            ],
            [
                "cUaEiLoRAuh4LRQhxFDfHMH6CmHqCPJqSsUuzLD2n5CpnCHKKSwX",
                "76a9149139c74239af4ff8279b4675643e9db474bfefe488ac"
            ]
        ]
    ],
    [
        {
            "comment": "Unstake transaction",
            "version": 1,
            "vin": [
                {
                    "outpoint": {
                        "txid": "00d268b6476e27669c11780963d6a5d28c42eb7032d1d5e0fd796a7b59d91c3e",
                        "n": 1
                    },
                    "scriptSig": "483045022100e7b2e0788d030ff380a3c69c57b0f9d3df3689007e249e00a5463d0b7f20af4a02204a672266779f95d5011e09d776ad1468d64cf68524b3cca2a39536ab15f9403d01002102814b13a56bfb930565ff9002298d315e50a11e6902aff2a0c334d2c27b1aa89b"
                }
            ],
            "vout": [
                {
                    "script": "76a9149139c74239af4ff8279b4675643e9db474bfefe488ac",
                    "value": 49989800
                },
                {
                    "script": "76a9149139c74239af4ff8279b4675643e9db474bfefe488ac",
                    "value": 50000000
                }
            ],
            "lockTime": 0,
            "shieldData": ""
        },
        "3bda3fd067c482bdbf3ada34d0f0e1b0f0e514fe8306c90995998d4ee9374a66",
        "01000000013e1cd9597b6a79fde0d5d13270eb428cd2a5d6630978119c66276e47b668d200010000006c483045022100e7b2e0788d030ff380a3c69c57b0f9d3df3689007e249e00a5463d0b7f20af4a02204a672266779f95d5011e09d776ad1468d64cf68524b3cca2a39536ab15f9403d01002102814b13a56bfb930565ff9002298d315e50a11e6902aff2a0c334d2c27b1aa89bffffffff02a8c8fa02000000001976a9149139c74239af4ff8279b4675643e9db474bfefe488ac80f0fa02000000001976a9149139c74239af4ff8279b4675643e9db474bfefe488ac00000000",
        [
            [
                "cUaEiLoRAuh4LRQhxFDfHMH6CmHqCPJqSsUuzLD2n5CpnCHKKSwX",
                "76a97b63d114f912041b9c6d2351a4022cb1e8ee0108ed72397967149139c74239af4ff8279b4675643e9db474bfefe46888ac",
                true
            ]
        ]
    ],
    [
        {
            "comment": "Tx with locktime = 0",
            "version": 1,
            "vin": [
                {
                    "outpoint": {
                        "txid": "ad33a6786b9fa8a55155c9694db938cadc8d4a4eebfc65b010dedd3d2fa4a3ff",
                        "n": 1
                    },
                    "scriptSig": "47304402200d3fe81ea14d48e22485731c1d404bcb68c449be6e6ee017651c8cb9c7eff2980220343e228dd6ef42f8baf3eabeb41766eba906835c6c26bd47b5d710b3382253a6012103b6c8fe9e4a7c1e7bd040f2b1d13b023f89f78f9a61dce73665c25d96d0f34bde",
                    "sequence": 0
                }
            ],
            "vout": [
                {
                    "script": "76a914a95cc6408a676232d61ec29dc56a180b5847835788ac",
                    "value": 5000000
                },
                {
                    "script": "76a9149209691ea10d302c1eb8dd21d966beb7c24e0c6988ac",
                    "value": 4997514
                }
            ],
            "lockTime": 0,
            "shieldData": ""
        },
        "f4e8367e511c0c0119766b9f31f63e25efd806167e017960e6ef7fbd83da1cf9",
        "0100000001ffa3a42f3dddde10b065fceb4e4a8ddcca38b94d69c95551a5a89f6b78a633ad010000006a47304402200d3fe81ea14d48e22485731c1d404bcb68c449be6e6ee017651c8cb9c7eff2980220343e228dd6ef42f8baf3eabeb41766eba906835c6c26bd47b5d710b3382253a6012103b6c8fe9e4a7c1e7bd040f2b1d13b023f89f78f9a61dce73665c25d96d0f34bde0000000002404b4c00000000001976a914a95cc6408a676232d61ec29dc56a180b5847835788ac8a414c00000000001976a9149209691ea10d302c1eb8dd21d966beb7c24e0c6988ac00000000"
    ],
    [
        {
            "comment": "Version 3 p2pkh tx",
            "version": 3,
            "vin": [
                {
                    "outpoint": {
                        "txid": "f8f968d80ac382a7b64591cc166489f66b7c4422f95fbd89f946a5041d285d7c",
                        "n": 1
                    },
                    "scriptSig": "483045022100a4eac56caaf3700c4f53822fbb858256f3a5c154d268f416ade685de3fe61de202206fb38cfe8fd4faf8b14dc7ac0799c4acfd50a81c4d93509ebd6fb0bca3bb8a7a0121035b57e0afed95b86ad3ccafb9a8c752dc173cea16274cf9dd9b7a43364d36cf38"
                }
            ],
            "vout": [
                {
                    "script": "76a914f49b25384b79685227be5418f779b98a6be4c73888ac",
                    "value": 4992400
                },
                {
                    "script": "76a914a95cc6408a676232d61ec29dc56a180b5847835788ac",
                    "value": 5000000
                }
            ],
            "lockTime": 0,
            "shieldData": ""
        },
        "7b0c3690e82ca98adcbc2ad5971da6d5b497be9a80684fe5d23898ed2eff69be",
        "03000000017c5d281d04a546f989bd5ff922447c6bf6896416cc9145b6a782c30ad868f9f8010000006b483045022100a4eac56caaf3700c4f53822fbb858256f3a5c154d268f416ade685de3fe61de202206fb38cfe8fd4faf8b14dc7ac0799c4acfd50a81c4d93509ebd6fb0bca3bb8a7a0121035b57e0afed95b86ad3ccafb9a8c752dc173cea16274cf9dd9b7a43364d36cf38ffffffff02902d4c00000000001976a914f49b25384b79685227be5418f779b98a6be4c73888ac404b4c00000000001976a914a95cc6408a676232d61ec29dc56a180b5847835788ac000000000000000000000000000000"
    ]
]
